:020000040800F2
:1000000000280020DD1000082D1100081D02000846
:1000100023020008290200082F0200080000000047
:100020000000000000000000000000003502000891
:100030002D11000800000000790600088902000860
:100040002D1100082D1100082D1100082D11000898
:100050002D1100082D11000831110008551100085C
:10006000791100089D110008C11100082D11000828
:100070002D1100082D1100082D1100082D11000868
:100080002D1100082D1100082D1100082D11000858
:100090002D1100082D1100082D110008E511000890
:1000A0002D1100082D1100082D1100082D11000838
:1000B0002D1100082D1100082D1100082D11000828
:1000C0002D1100082D1100082D1100082D11000818
:1000D0002D1100082D1100082D1100082D11000808
:1000E0008D1200082D110008000000002D110008DD
:1000F0002D1100082D1100082D1100082D110008E8
:100100002D1100082D1100082D1100082D110008D7
:100110002D1100082D1100082D1100082D110008C7
:100120002D1100082D1100082D1100082D110008B7
:1001300010B5054C237833B9044B13B10448AFF321
:1001400000800123237010BD040000200000000087
:100150009813000808B5034B1BB103490348AFF3DC
:10016000008008BD0000000008000020981300086F
:1001700010F8012B11F8013B012A28BF9A42F7D051
:10018000D01A704780B483B000AF03463960FB716A
:1001900097F90730002B0ADB3B68DAB20C4997F974
:1001A00007305201D2B20B4483F800230AE03B68C7
:1001B000DAB20849FB7903F00F03043B5201D2B2D3
:1001C0000B441A7600BF0C37BD4680BC704700BF99
:1001D00000E100E000ED00E080B582B000AF7860A3
:1001E0007B68013BB3F1807F01D301230FE00A4A12
:1001F0007B68013B536007214FF0FF30FFF7C2FFE0
:10020000054B00229A60044B07221A60002318460F
:100210000837BD4680BD00BF10E000E080B400AFED
:10022000FEE780B400AFFEE780B400AFFEE780B425
:1002300000AFFEE71EF0040F0CBFEFF30880EFF3F2
:10024000098000F0D9B900BF80B400AF044B5B68EF
:10025000034A43F08053536000BFBD4680BC7047E3
:1002600000ED00E080B500AF0F216FF00100FFF757
:1002700089FF00BF80BD80B500AF4FF4FA50FFF793
:10028000ABFF00BF80BD000080B500AF074B1B78FF
:1002900083F00103DAB2054B1A7000F001FC00F0A4
:1002A00059F9FFF7D1FF00BF80BD00BF3C0000201F
:1002B00080B485B000AFF860B9607A60BB68002B8D
:1002C00001D1032311E0FB68BA68DA60FB68DA68E1
:1002D000FB685A60FB68DA68FB689A60FB687A68BA
:1002E0001A61FB6800221A60002318461437BD46C5
:1002F00080BC704780B483B000AF786039607B68A1
:10030000DB68002B03D07B681B69002B01D1032322
:100310002EE07B685A687B689B689A4207D17B68AD
:100320001A687B681B699A4201D1012320E07B682F
:100330009B683A681A607B681B685A1C7B681A6065
:100340007B689B681A467B68DB6819467B681B697B
:100350009B000B44043B9A4204D17B68DA687B68BB
:100360009A6004E07B689B681A1D7B689A60002392
:1003700018460C37BD4680BC704780B483B000AFD0
:10038000786039607B68DB68002B03D07B681B6971
:10039000002B01D1032329E07B685A687B689B68A6
:1003A0009A4201D1022321E07B685B681A683B68AE
:1003B0001A607B681B685A1E7B681A607B685B68E2
:1003C0001A467B68DB6819467B681B699B000B44F7
:1003D000043B9A4204D17B68DA687B685A6004E087
:1003E0007B685B681A1D7B685A60002318460C37CF
:1003F000BD4680BC7047000080B485B000AF214B83
:10040000D3F89C317B600023FB6030E00023BB60AD
:1004100023E01C4ABB6852F823301A79BB680133C9
:10042000184951F823301B799A4213D9154ABB68F1
:1004300052F823303B60BB680133124A52F8232044
:100440001049BB6841F82320BB6801330D493A6865
:1004500041F82320BB680133BB607A68FB68D31A7C
:10046000013BBA689A42D4D3FB680133FB607B68D6
:10047000013BFA689A42C9D300BF1437BD4680BC1D
:10048000704700BFD401002080B584B000AF0023C6
:100490003B600023BB6000237B600023FB60FFF711
:1004A000ABFF00BF3B4619462848FFF766FF0346EF
:1004B000022BF7D13DE0264AFB6852F82330BB609F
:1004C000FB680133224A52F823307B60BB6893F803
:1004D0003630002B2AD07B6893F83630002B08D1B9
:1004E000B9681A48FFF706FFBB68022283F8362076
:1004F00027E0BB681A797B681B799A4208D2B968F1
:100500001248FFF7F7FEBB68022283F8362018E096
:10051000BB681A797B681B799A4211D1B9680B487C
:10052000FFF7E8FEBB68022283F83620FB68013340
:10053000FB60074BD3F89C21FB689A42BBD800E0D4
:1005400000BF00BF1037BD4680BD00BFA80300201C
:10055000D401002080B500AF244B1B68002B1AD1BA
:10056000234BD3F8A03193F83630002B13D0204B17
:10057000D3F8A031032283F836201D4BD3F8A031E5
:1005800019461A48FFF7B6FE194BD3F8A031184A9E
:10059000C2F8A43127E017491448FFF7EEFE144BC8
:1005A000D3F8A431032283F83620114BD3F8A031BD
:1005B0001A790F4BD3F8A4311B799A4213D10C4B03
:1005C000D3F8A03193F83630002B0CD0084BD3F879
:1005D000A03119460548FFF78DFE054BD3F8A03131
:1005E000022283F8362000BF80BD00BFA803002090
:1005F000D40100207803002080B584B000AF78607B
:100600007B6818331B68023B1B78FB73FB7B042B56
:1006100029D801A252F823F02D0600082D06000863
:100620005B0600086106000861060008FFF72CFF62
:100630000F4B93F8A831012B14D10D4BD3F8A031F7
:1006400018330C491846FFF793FD0346002B09D0D9
:10065000FFF780FFFFF7F8FD04E0FFF715FF02E06A
:1006600000BF00E000BF00BF1037BD4680BD00BF27
:10067000D4010020B01300086F4BD3F8A031EFF382
:10068000098002465A616C4BD3F8A0315A69043A8A
:100690005A61694BD3F8A0315B6922461A60664BF8
:1006A000D3F8A0315A69043A5A61634BD3F8A031A8
:1006B0005B692A461A60604BD3F8A0315A69043A44
:1006C0005A615D4BD3F8A0315B6932461A605A4BD0
:1006D000D3F8A0315A69043A5A61574BD3F8A03184
:1006E0005B693A461A60544BD3F8A0315A69043A10
:1006F0005A61514BD3F8A0315B6942461A604E4BA8
:10070000D3F8A0315A69043A5A614B4BD3F8A0315F
:100710005B694A461A60484BD3F8A0315A69043ADB
:100720005A61454BD3F8A0315B6952461A60424B7F
:10073000D3F8A0315A69043A5A613F4BD3F8A0313B
:100740005B695A461A603C4BD3F8A431002B09D0A0
:10075000394BD3F8A431384AC2F8A031364B0022C5
:10076000C3F8A421344BD3F8A0315B691B689B46C6
:10077000314BD3F8A0315A6904325A612E4BD3F869
:10078000A0315B691B689A462B4BD3F8A0315A699C
:1007900004325A61284BD3F8A0315B691B68994633
:1007A000254BD3F8A0315A6904325A61224BD3F851
:1007B000A0315B691B6898461F4BD3F8A0315A697A
:1007C00004325A611C4BD3F8A0315B691B681F4689
:1007D000194BD3F8A0315A6904325A61164BD3F839
:1007E000A0315B691B681E46134BD3F8A0315A69D0
:1007F00004325A61104BD3F8A0315B691B681D4667
:100800000D4BD3F8A0315A6904325A610A4BD3F820
:10081000A0315B691B681C46074BD3F8A0315A69AD
:1008200004325A61044BD3F8A0315B69184680F357
:100830000988704700BF00BFD401002080B400AF1A
:100840000B4A0C4BC3F890210A4BD3F89031A3F517
:100850000063084AC2F89431064BD3F89431083B40
:10086000044AC2F8983100BFBD4680BC704700BF43
:1008700000280020D401002080B400AF044B1B7876
:1008800083F00103DAB2024B1A7020BFF6E700BF13
:100890004000002080B582B000AF0023FB71164BF2
:1008A000002283F8A821FFF7C9FF642213491448E6
:1008B000FFF7FEFC0346002B02D0FB790133FB71EE
:1008C000104B114A07CA03C31A70104BFF221A714A
:1008D0000E4B0F4A9A600D4B4FF496721A600B48FC
:1008E00000F056F803461A46FB791344FB71FB7976
:1008F00018460837BD4680BDD401002044000020C2
:10090000A8030020D4030020B0130008BC0300207B
:100910007908000880B485B000AF78607B68DB6838
:100920001A467B685A617B685B691A1F7B685A614B
:100930007B685B694FF080721A607B685B691A1F85
:100940007B685A617B689A687B685B691A607B6820
:100950005B691A1F7B685A617B685B696FF00202F2
:100960001A600023FB600BE07B685B691A1F7B68E1
:100970005A617B685B6900221A60FB680133FB6087
:10098000FB680C2BF0DD00BF1437BD4680BC704700
:1009900080B584B000AF78600023FB73194BD3F8A7
:1009A00098217B68DA607B68DA687B681B68D21AFA
:1009B0007B681A617B681B69134A934201D2022348
:1009C0001BE07B681B69083B0E4AC2F898317868C7
:1009D000FFF7A0FF0B4BD3F89C310A497A6841F826
:1009E0002320084BD3F89C310133064AC2F89C31CE
:1009F0007B68002283F83620FB7B18461037BD4603
:100A000080BD00BFD40100202808002080B483B03E
:100A100000AF0346FB71FB79042B17D801A252F8F3
:100A200023F000BF390A00083D0A0008410A000807
:100A3000450A0008490A000800DF07E001DF05E079
:100A400002DF03E003DF01E004DF00BF00BF0C377B
:100A5000BD4680BC704700BF80B584B000AF7860F1
:100A60000023FB737B68012283F836200020FFF708
:100A7000CDFFFB7B18461037BD4680BD80B584B0E6
:100A800000AF78600023FB737B68002283F8362078
:100A90000120FFF7BBFFFB7B18461037BD4680BD2A
:100AA00080B582B000AF00237B6031E01D4A7B68D7
:100AB00052F8233093F83630002B26D1194A7B6840
:100AC00052F8233093F83830012B1ED1154A7B6839
:100AD00052F82330DA6B013ADA63124A7B6852F833
:100AE0002330DB6B012B10D10E4A7B6852F8233088
:100AF000002283F838200B4A7B6852F82330012209
:100B000083F836200220FFF781FF7B6801337B608A
:100B1000044BD3F89C217B689A42C7D800BF0837A2
:100B2000BD4680BDD401002080B586B000AF78609E
:100B300039600023FB737B681B6A002B30D07B6815
:100B40005B6A002B2AD100237B610BE02B4A7B6977
:100B500052F823303A689A4201D1042349E07B6974
:100B600001337B617B69092BF0DD7B683A685A624F
:100B70003B68002283F836207B681B6A1A797B6801
:100B80005B6A1B799A4205D97B685A6A7B681B6A43
:100B900012791A710120FFF739FF29E0032328E0B9
:100BA0007B683A681A627B681B6A1A797B6883F8EB
:100BB0002D2000233B610BE0104A3B6952F82330A3
:100BC0003A689A4201D1FB7B13E03B6901333B61F8
:100BD0003B69092BF0DD0A4B1B781946074A3B6835
:100BE00042F82130064B1B780133DAB2044B1A70FD
:100BF000FB7B18461837BD4680BD00BF8003002030
:100C00002000002080B584B000AF78600023FB7224
:100C10007B681B6A002B30D07B681B6A7A6892F86D
:100C20002D201A717B685B6A1A797B6883F82D2006
:100C30000023FB600FE07B681A6A1249FB6851F8D9
:100C400023309A4204D10F4AFB68002142F8231056
:100C5000FB680133FB60FB68092BECDD7B685A6A9B
:100C60007B681A627B6800225A627B681B6A0122D9
:100C700083F836200020FFF7C9FEFB7A18461037AC
:100C8000BD4680BD8003002080B500AF124B01221D
:100C900083F8A821104B114AC3F8A0210F48FFF791
:100CA000DBFEFFF7E8FA0C4BD3F8A0315B6918467E
:100CB00080F30988EFF3148040F0020080F3148879
:100CC000EFF3148343F0010383F31488034B9B6811
:100CD000984700BF80BD00BFD4010020BC030020A6
:100CE00080B500AF104B1B7883F00103DAB20E4BD6
:100CF0001A700E4B1B6801330C4A13600B4B1B68B8
:100D0000642B06D10A490B48FFF70EFF0A48FFF78C
:100D1000A3FE064B1B68C82BE4D1044B00221A60CB
:100D20000448FFF76FFFDDE7720400202400002075
:100D300074040020000400206805002080B500AF86
:100D40000E4B1B7883F00103DAB20C4B1A700C4B7C
:100D50001B6801330A4A1360094B1B68642B02D1DC
:100D60000848FFF779FE064B1B68C82BE8D10648F8
:100D7000FFF784FE024B00221A60E1E770040020B6
:100D800028000020F40400206805002080B500AF92
:100D90000E4B1B7883F00103DAB20C4B1A700C4B2C
:100DA0001B6801330A4A1360094B1B68642B02D18C
:100DB0000848FFF751FE064B1B68C82BE8D10648D0
:100DC000FFF75CFE024B00221A60E1E76405002099
:100DD0002C00002030040020F404002080B500AF77
:100DE000104B1B7883F00103DAB20E4B1A700E4BD6
:100DF0001B6801330C4A13600B4B1B68032B03D198
:100E00000A490B48FFF790FE074B1B68642BE7D19C
:100E10000748FFF7F7FE0548FFF730FE024B0022B8
:100E20001A60DDE7FC0300203000002030040020C1
:100E30000004002080B500AF164B1B7883F001033F
:100E4000DAB2144B1A70144B1B680133124A136048
:100E5000114B1B68642B0AD110491148FFF764FE3F
:100E60001048FFF7F9FD0D490F48FFF75DFE0A4BEB
:100E70001B68C82B02D10A48FFF7C4FE064B1B684B
:100E8000B3F5967FD8D10848FFF7BCFE024B00228D
:100E90001A60D1E77104002034000020B40400205F
:100EA00000040020A80500203405002080B500AF14
:100EB00016491748FFF738FE164B1B7883F00103DD
:100EC000DAB2144B1A70144B1B680133124A1360C8
:100ED000114B1B68032B03D10C491048FFF724FE6C
:100EE0000D4B1B68642B05D10948FFF78BFE0748A3
:100EF000FFF7C4FD084B1B68B3F5C87FDCD104487D
:100F0000FFF780FE044B00221A60D5E7A8050020F9
:100F10003405002073040020380000200004002065
:100F200080B582B000AF0023FB71FFF79BF9504BF7
:100F3000504A07CA83E807004D4B032283F82C2050
:100F40004B4B4D4A9A62FFF7A5FC0346002B00D09D
:100F5000FEE74A4B4FF480621A60484B484A9A6059
:100F6000464B04221A71474B474A92E80300186027
:100F70000433198002330A0C1A70444B4FF4806218
:100F80001A60424B424A9A60404B03221A71414B0D
:100F9000414A92E8030018600433198002330A0CB6
:100FA0001A703E4B4FF480621A603C4B3C4A9A6088
:100FB0003A4B02221A713B4B3B4A92E803001860FD
:100FC0000433198002330A0C1A70384B4FF48062D4
:100FD0001A60364B364A9A60344B01221A71354BEF
:100FE000354A92E8030018600433198002330A0C72
:100FF0001A70324B4FF480621A60304B304A9A605C
:101000002E4B04221A712F4B2F4A92E803001860CE
:101010000433198002330A0C1A702C4B4FF480628F
:101020001A602A4B2A4A9A60284B02221A71294BCD
:10103000294A92E8030018600433198002330A0C2D
:101040001A701E48FFF7A4FC03461A46FB791344A6
:10105000FB711E48FFF79CFC03461A46FB791344BC
:10106000FB711648FFF7F8FCFFF70EFEFEE700BF26
:1010700000040020BC1300080000002074040020BD
:10108000E10C00088C040020C8130008680500204B
:101090003D0D000880050020D0130008F404002056
:1010A0008D0D00080C050020D81300083004002026
:1010B000DD0D000848040020E0130008B4040020FF
:1010C000350E0008CC040020E8130008A805002015
:1010D000AD0E0008C0050020F01300080D4885463D
:1010E000AFF300800C480D490D4A002302E0D458AC
:1010F000C4500433C4188C42F9D30A4A0A4C002362
:1011000001E013600432A242FBD300F021F9FFF7A3
:1011100007FFFEE700280020000000200400002058
:10112000001400080400002024060020FEE7000050
:1011300080B500AF054B5B69044A43F0010353617E
:10114000034B1B68984700BF80BD00BF00040140EF
:10115000E805002080B500AF054B5B69044A43F009
:1011600002035361034B5B68984700BF80BD00BF1B
:1011700000040140E805002080B500AF054B5B6925
:10118000044A43F004035361034B9B68984700BF34
:1011900080BD00BF00040140E805002080B500AF1D
:1011A000054B5B69044A43F008035361034BDB685A
:1011B000984700BF80BD00BF00040140E805002043
:1011C00080B500AF054B5B69044A43F010035361DF
:1011D000034B1B69984700BF80BD00BF000401405E
:1011E000E805002080B500AF264B5B6903F02003C3
:1011F000002B08D0234B5B69224A43F02003536144
:10120000214B5B6998471F4B5B6903F04003002B40
:1012100008D01C4B5B691B4A43F0400353611A4BD7
:101220009B699847174B5B6903F08003002B08D03C
:10123000144B5B69134A43F080035361124BDB6923
:101240009847104B5B6903F48073002B08D00D4B5B
:101250005B690C4A43F4807353610B4B1B6A9847DC
:10126000084B5B6903F40073002B08D0054B5B69E6
:10127000044A43F400735361034B5B6A984700BF11
:1012800080BD00BF00040140E805002080B500AF2C
:101290002D4B5B6903F48063002B08D02A4B5B69FC
:1012A000294A43F480635361284B9B6A9847264B35
:1012B0005B6903F40063002B08D0234B5B69224A6F
:1012C00043F400635361214BDB6A98471E4B5B6913
:1012D00003F48053002B08D01B4B5B691A4A43F47C
:1012E00080535361194B1B6B9847174B5B6903F491
:1012F0000053002B08D0144B5B69134A43F400538E
:101300005361124B5B6B98470F4B5B6903F480434F
:10131000002B08D00C4B5B690B4A43F480435361AC
:101320000A4B9B6B9847084B5B6903F40043002B07
:1013300008D0054B5B69044A43F400435361034BF7
:10134000DB6B984700BF80BD00040140E80500202A
:1013500070B500250C4E0D4CA41BA410A54209D15C
:1013600000F01AF800250A4E0A4CA41BA410A5424E
:1013700005D170BD56F8253098470135EEE756F88F
:10138000253098470135F2E7F8130008F8130008F4
:10139000F8130008FC130008F8B500BFF8BC08BC3F
:1013A0009E467047F8B500BFF8BC08BC9E46704723
:1013B00069646C655461736B000000004D75746561
:1013C000782054312C5434007461736B5F31000009
:1013D0007461736B5F3200007461736B5F33000084
:1013E0007461736B5F3400007461736B5F35000070
:0813F0007461736B5F360000AD
:0413F8005501000893
:0413FC0031010008B3
:0414000001020300E2
:04000005080010DD02
:00000001FF
